{
  "_format": "hh-sol-artifact-1",
  "contractName": "ProofERP",
  "sourceName": "contracts/ProofERP.sol",
  "abi": [
    {
      "anonymous": false,
      "inputs": [
        {
          "indexed": false,
          "internalType": "string",
          "name": "documentHash",
          "type": "string"
        },
        {
          "indexed": false,
          "internalType": "string",
          "name": "documentName",
          "type": "string"
        },
        {
          "indexed": false,
          "internalType": "string",
          "name": "documentType",
          "type": "string"
        },
        {
          "indexed": false,
          "internalType": "uint256",
          "name": "timestamp",
          "type": "uint256"
        },
        {
          "indexed": true,
          "internalType": "address",
          "name": "author",
          "type": "address"
        }
      ],
      "name": "RecordRegistered",
      "type": "event"
    },
    {
      "inputs": [
        {
          "internalType": "string",
          "name": "_documentHash",
          "type": "string"
        },
        {
          "internalType": "string",
          "name": "_documentName",
          "type": "string"
        },
        {
          "internalType": "string",
          "name": "_documentType",
          "type": "string"
        }
      ],
      "name": "registerRecord",
      "outputs": [],
      "stateMutability": "nonpayable",
      "type": "function"
    },
    {
      "inputs": [
        {
          "internalType": "string",
          "name": "_documentHash",
          "type": "string"
        }
      ],
      "name": "verifyRecord",
      "outputs": [
        {
          "internalType": "bool",
          "name": "exists",
          "type": "bool"
        },
        {
          "internalType": "string",
          "name": "documentName",
          "type": "string"
        },
        {
          "internalType": "string",
          "name": "documentType",
          "type": "string"
        },
        {
          "internalType": "uint256",
          "name": "timestamp",
          "type": "uint256"
        },
        {
          "internalType": "address",
          "name": "author",
          "type": "address"
        }
      ],
      "stateMutability": "view",
      "type": "function"
    }
  ],
  "bytecode": "0x6080604052348015600f57600080fd5b50610cbe8061001f6000396000f3fe608060405234801561001057600080fd5b50600436106100365760003560e01c806364cffa231461003b578063c40e582414610057575b600080fd5b6100556004803603810190610050919061064c565b61008b565b005b610071600480360381019061006c91906106f3565b610238565b604051610082959493929190610830565b60405180910390f35b6000808460405161009c91906108cd565b908152602001604051809103902060030154146100ee576040517f08c379a00000000000000000000000000000000000000000000000000000000081526004016100e590610930565b60405180910390fd5b6040518060a001604052808481526020018381526020018281526020014281526020013373ffffffffffffffffffffffffffffffffffffffff1681525060008460405161013b91906108cd565b9081526020016040518091039020600082015181600001908161015e9190610b5c565b5060208201518160010190816101749190610b5c565b50604082015181600201908161018a9190610b5c565b506060820151816003015560808201518160040160006101000a81548173ffffffffffffffffffffffffffffffffffffffff021916908373ffffffffffffffffffffffffffffffffffffffff1602179055509050503373ffffffffffffffffffffffffffffffffffffffff167f480bf0b2d49f5edffc908a17317caf47819449b3a32a67b11b64d8f731579e9c8484844260405161022b9493929190610c2e565b60405180910390a2505050565b60006060806000806000808760405161025191906108cd565b90815260200160405180910390206040518060a001604052908160008201805461027a9061097f565b80601f01602080910402602001604051908101604052809291908181526020018280546102a69061097f565b80156102f35780601f106102c8576101008083540402835291602001916102f3565b820191906000526020600020905b8154815290600101906020018083116102d657829003601f168201915b5050505050815260200160018201805461030c9061097f565b80601f01602080910402602001604051908101604052809291908181526020018280546103389061097f565b80156103855780601f1061035a57610100808354040283529160200191610385565b820191906000526020600020905b81548152906001019060200180831161036857829003601f168201915b5050505050815260200160028201805461039e9061097f565b80601f01602080910402602001604051908101604052809291908181526020018280546103ca9061097f565b80156104175780601f106103ec57610100808354040283529160200191610417565b820191906000526020600020905b8154815290600101906020018083116103fa57829003601f168201915b50505050508152602001600382015481526020016004820160009054906101000a900473ffffffffffffffffffffffffffffffffffffffff1673ffffffffffffffffffffffffffffffffffffffff1673ffffffffffffffffffffffffffffffffffffffff1681525050905060008160600151036104c757600080600060405180602001604052806000815250919060405180602001604052806000815250919095509550955095509550506104e9565b6001816020015182604001518360600151846080015195509550955095509550505b91939590929450565b6000604051905090565b600080fd5b600080fd5b600080fd5b600080fd5b6000601f19601f8301169050919050565b7f4e487b7100000000000000000000000000000000000000000000000000000000600052604160045260246000fd5b61055982610510565b810181811067ffffffffffffffff8211171561057857610577610521565b5b80604052505050565b600061058b6104f2565b90506105978282610550565b919050565b600067ffffffffffffffff8211156105b7576105b6610521565b5b6105c082610510565b9050602081019050919050565b82818337600083830152505050565b60006105ef6105ea8461059c565b610581565b90508281526020810184848401111561060b5761060a61050b565b5b6106168482856105cd565b509392505050565b600082601f83011261063357610632610506565b5b81356106438482602086016105dc565b91505092915050565b600080600060608486031215610665576106646104fc565b5b600084013567ffffffffffffffff81111561068357610682610501565b5b61068f8682870161061e565b935050602084013567ffffffffffffffff8111156106b0576106af610501565b5b6106bc8682870161061e565b925050604084013567ffffffffffffffff8111156106dd576106dc610501565b5b6106e98682870161061e565b9150509250925092565b600060208284031215610709576107086104fc565b5b600082013567ffffffffffffffff81111561072757610726610501565b5b6107338482850161061e565b91505092915050565b60008115159050919050565b6107518161073c565b82525050565b600081519050919050565b600082825260208201905092915050565b60005b83811015610791578082015181840152602081019050610776565b60008484015250505050565b60006107a882610757565b6107b28185610762565b93506107c2818560208601610773565b6107cb81610510565b840191505092915050565b6000819050919050565b6107e9816107d6565b82525050565b600073ffffffffffffffffffffffffffffffffffffffff82169050919050565b600061081a826107ef565b9050919050565b61082a8161080f565b82525050565b600060a0820190506108456000830188610748565b8181036020830152610857818761079d565b9050818103604083015261086b818661079d565b905061087a60608301856107e0565b6108876080830184610821565b9695505050505050565b600081905092915050565b60006108a782610757565b6108b18185610891565b93506108c1818560208601610773565b80840191505092915050565b60006108d9828461089c565b915081905092915050565b7f446f63756d656e7420616c726561647920726567697374657265640000000000600082015250565b600061091a601b83610762565b9150610925826108e4565b602082019050919050565b600060208201905081810360008301526109498161090d565b9050919050565b7f4e487b7100000000000000000000000000000000000000000000000000000000600052602260045260246000fd5b6000600282049050600182168061099757607f821691505b6020821081036109aa576109a9610950565b5b50919050565b60008190508160005260206000209050919050565b60006020601f8301049050919050565b600082821b905092915050565b600060088302610a127fffffffffffffffffffffffffffffffffffffffffffffffffffffffffffffffff826109d5565b610a1c86836109d5565b95508019841693508086168417925050509392505050565b6000819050919050565b6000610a59610a54610a4f846107d6565b610a34565b6107d6565b9050919050565b6000819050919050565b610a7383610a3e565b610a87610a7f82610a60565b8484546109e2565b825550505050565b600090565b610a9c610a8f565b610aa7818484610a6a565b505050565b5b81811015610acb57610ac0600082610a94565b600181019050610aad565b5050565b601f821115610b1057610ae1816109b0565b610aea846109c5565b81016020851015610af9578190505b610b0d610b05856109c5565b830182610aac565b50505b505050565b600082821c905092915050565b6000610b3360001984600802610b15565b1980831691505092915050565b6000610b4c8383610b22565b9150826002028217905092915050565b610b6582610757565b67ffffffffffffffff811115610b7e57610b7d610521565b5b610b88825461097f565b610b93828285610acf565b600060209050601f831160018114610bc65760008415610bb4578287015190505b610bbe8582610b40565b865550610c26565b601f198416610bd4866109b0565b60005b82811015610bfc57848901518255600182019150602085019450602081019050610bd7565b86831015610c195784890151610c15601f891682610b22565b8355505b6001600288020188555050505b505050505050565b60006080820190508181036000830152610c48818761079d565b90508181036020830152610c5c818661079d565b90508181036040830152610c70818561079d565b9050610c7f60608301846107e0565b9594505050505056fea26469706673582212207baed4df1aba382e81301ae7d9208c0ace68569b7c02068921c629030bfae39764736f6c634300081c0033",
  "linkReferences": {},
  "deployedLinkReferences": {}
}